{
  "_format": "hh-sol-artifact-1",
  "contractName": "TwitterAppContract",
  "sourceName": "contracts/TwitterAppContract.sol",
  "abi": [
    {
      "anonymous": false,
      "inputs": [
        {
          "indexed": false,
          "internalType": "uint256",
          "name": "tweetId",
          "type": "uint256"
        },
        {
          "indexed": false,
          "internalType": "bool",
          "name": "isDeleted",
          "type": "bool"
        }
      ],
      "name": "DeleteTweet",
      "type": "event"
    },
    {
      "anonymous": false,
      "inputs": [
        {
          "indexed": false,
          "internalType": "address",
          "name": "recipient",
          "type": "address"
        },
        {
          "indexed": false,
          "internalType": "uint256",
          "name": "tweetId",
          "type": "uint256"
        }
      ],
      "name": "NewTweet",
      "type": "event"
    },
    {
      "anonymous": false,
      "inputs": [
        {
          "indexed": false,
          "internalType": "address",
          "name": "recipient",
          "type": "address"
        },
        {
          "indexed": false,
          "internalType": "uint256",
          "name": "tweetId",
          "type": "uint256"
        },
        {
          "indexed": false,
          "internalType": "bool",
          "name": "isDeleted",
          "type": "bool"
        }
      ],
      "name": "UpdateTweet",
      "type": "event"
    },
    {
      "inputs": [
        {
          "internalType": "string",
          "name": "_tweetText",
          "type": "string"
        },
        {
          "internalType": "bool",
          "name": "_isDeleted",
          "type": "bool"
        }
      ],
      "name": "createTweet",
      "outputs": [],
      "stateMutability": "nonpayable",
      "type": "function"
    },
    {
      "inputs": [
        {
          "internalType": "uint256",
          "name": "_tweetId",
          "type": "uint256"
        },
        {
          "internalType": "bool",
          "name": "_isDeleted",
          "type": "bool"
        }
      ],
      "name": "deleteTweet",
      "outputs": [],
      "stateMutability": "nonpayable",
      "type": "function"
    },
    {
      "inputs": [],
      "name": "getAllTweets",
      "outputs": [
        {
          "components": [
            {
              "internalType": "uint256",
              "name": "id",
              "type": "uint256"
            },
            {
              "internalType": "address",
              "name": "username",
              "type": "address"
            },
            {
              "internalType": "string",
              "name": "tweetText",
              "type": "string"
            },
            {
              "internalType": "bool",
              "name": "isDeleted",
              "type": "bool"
            }
          ],
          "internalType": "struct TwitterAppContract.Tweet[]",
          "name": "",
          "type": "tuple[]"
        }
      ],
      "stateMutability": "view",
      "type": "function"
    },
    {
      "inputs": [
        {
          "internalType": "uint256",
          "name": "_tweetId",
          "type": "uint256"
        },
        {
          "internalType": "string",
          "name": "_newTweetText",
          "type": "string"
        },
        {
          "internalType": "bool",
          "name": "_isDeleted",
          "type": "bool"
        }
      ],
      "name": "updateTweet",
      "outputs": [],
      "stateMutability": "nonpayable",
      "type": "function"
    }
  ],
  "bytecode": "0x608060405234801561001057600080fd5b50611119806100206000396000f3fe608060405234801561001057600080fd5b506004361061004c5760003560e01c8063532561351461005157806366b9c65a1461006f578063f0312a371461008b578063f5c83a2e146100a7575b600080fd5b6100596100c3565b6040516100669190610deb565b60405180910390f35b61008960048036038101906100849190610ba5565b6104af565b005b6100a560048036038101906100a09190610b69565b61070b565b005b6100c160048036038101906100bc9190610b15565b610813565b005b60606000808054905067ffffffffffffffff81111561010b577f4e487b7100000000000000000000000000000000000000000000000000000000600052604160045260246000fd5b60405190808252806020026020018201604052801561014457816020015b6101316109a0565b8152602001906001900390816101295790505b5090506000805b600080549050811015610383576000151560008281548110610196577f4e487b7100000000000000000000000000000000000000000000000000000000600052603260045260246000fd5b906000526020600020906004020160030160009054906101000a900460ff161515141561037057600081815481106101f7577f4e487b7100000000000000000000000000000000000000000000000000000000600052603260045260246000fd5b9060005260206000209060040201604051806080016040529081600082015481526020016001820160009054906101000a900473ffffffffffffffffffffffffffffffffffffffff1673ffffffffffffffffffffffffffffffffffffffff1673ffffffffffffffffffffffffffffffffffffffff16815260200160028201805461028090610f6b565b80601f01602080910402602001604051908101604052809291908181526020018280546102ac90610f6b565b80156102f95780601f106102ce576101008083540402835291602001916102f9565b820191906000526020600020905b8154815290600101906020018083116102dc57829003601f168201915b505050505081526020016003820160009054906101000a900460ff161515151581525050838381518110610356577f4e487b7100000000000000000000000000000000000000000000000000000000600052603260045260246000fd5b6020026020010181905250818061036c90610fce565b9250505b808061037b90610fce565b91505061014b565b5060008167ffffffffffffffff8111156103c6577f4e487b7100000000000000000000000000000000000000000000000000000000600052604160045260246000fd5b6040519080825280602002602001820160405280156103ff57816020015b6103ec6109a0565b8152602001906001900390816103e45790505b50905060005b828110156104a557838181518110610446577f4e487b7100000000000000000000000000000000000000000000000000000000600052603260045260246000fd5b6020026020010151828281518110610487577f4e487b7100000000000000000000000000000000000000000000000000000000600052603260045260246000fd5b6020026020010181905250808061049d90610fce565b915050610405565b5080935050505090565b3373ffffffffffffffffffffffffffffffffffffffff166001600085815260200190815260200160002060009054906101000a900473ffffffffffffffffffffffffffffffffffffffff1673ffffffffffffffffffffffffffffffffffffffff1614156107065760008080549050905060016000858154811061055b577f4e487b7100000000000000000000000000000000000000000000000000000000600052603260045260246000fd5b906000526020600020906004020160030160006101000a81548160ff021916908315150217905550600060405180608001604052808381526020013373ffffffffffffffffffffffffffffffffffffffff16815260200185815260200184151581525090806001815401808255809150506001900390600052602060002090600402016000909190919091506000820151816000015560208201518160010160006101000a81548173ffffffffffffffffffffffffffffffffffffffff021916908373ffffffffffffffffffffffffffffffffffffffff16021790555060408201518160020190805190602001906106549291906109e0565b5060608201518160030160006101000a81548160ff0219169083151502179055505050336001600083815260200190815260200160002060006101000a81548173ffffffffffffffffffffffffffffffffffffffff021916908373ffffffffffffffffffffffffffffffffffffffff1602179055507f01adfb8b68a4951f26785934c5b3364f4f63a004dce50f77873a6b8b52191d3a3385846040516106fc93929190610db4565b60405180910390a1505b505050565b3373ffffffffffffffffffffffffffffffffffffffff166001600084815260200190815260200160002060009054906101000a900473ffffffffffffffffffffffffffffffffffffffff1673ffffffffffffffffffffffffffffffffffffffff16141561080f5780600083815481106107ad577f4e487b7100000000000000000000000000000000000000000000000000000000600052603260045260246000fd5b906000526020600020906004020160030160006101000a81548160ff0219169083151502179055507f2430f837dd2fb40e08c064be9db3d0cf2a7a21f8fe716a2a41787dafc66a7e2a8282604051610806929190610e0d565b60405180910390a15b5050565b600080805490509050600060405180608001604052808381526020013373ffffffffffffffffffffffffffffffffffffffff16815260200185815260200184151581525090806001815401808255809150506001900390600052602060002090600402016000909190919091506000820151816000015560208201518160010160006101000a81548173ffffffffffffffffffffffffffffffffffffffff021916908373ffffffffffffffffffffffffffffffffffffffff16021790555060408201518160020190805190602001906108ed9291906109e0565b5060608201518160030160006101000a81548160ff0219169083151502179055505050336001600083815260200190815260200160002060006101000a81548173ffffffffffffffffffffffffffffffffffffffff021916908373ffffffffffffffffffffffffffffffffffffffff1602179055507f6d52bec2260a2bf82b50ba2023e9908558cb8f7d96f93e6cb94a500b39c381d33382604051610993929190610d8b565b60405180910390a1505050565b604051806080016040528060008152602001600073ffffffffffffffffffffffffffffffffffffffff168152602001606081526020016000151581525090565b8280546109ec90610f6b565b90600052602060002090601f016020900481019282610a0e5760008555610a55565b82601f10610a2757805160ff1916838001178555610a55565b82800160010185558215610a55579182015b82811115610a54578251825591602001919060010190610a39565b5b509050610a629190610a66565b5090565b5b80821115610a7f576000816000905550600101610a67565b5090565b6000610a96610a9184610e5b565b610e36565b905082815260208101848484011115610aae57600080fd5b610ab9848285610f29565b509392505050565b600081359050610ad0816110b5565b92915050565b600082601f830112610ae757600080fd5b8135610af7848260208601610a83565b91505092915050565b600081359050610b0f816110cc565b92915050565b60008060408385031215610b2857600080fd5b600083013567ffffffffffffffff811115610b4257600080fd5b610b4e85828601610ad6565b9250506020610b5f85828601610ac1565b9150509250929050565b60008060408385031215610b7c57600080fd5b6000610b8a85828601610b00565b9250506020610b9b85828601610ac1565b9150509250929050565b600080600060608486031215610bba57600080fd5b6000610bc886828701610b00565b935050602084013567ffffffffffffffff811115610be557600080fd5b610bf186828701610ad6565b9250506040610c0286828701610ac1565b9150509250925092565b6000610c188383610d0a565b905092915050565b610c2981610ee1565b82525050565b610c3881610ee1565b82525050565b6000610c4982610e9c565b610c538185610ebf565b935083602082028501610c6585610e8c565b8060005b85811015610ca15784840389528151610c828582610c0c565b9450610c8d83610eb2565b925060208a01995050600181019050610c69565b50829750879550505050505092915050565b610cbc81610ef3565b82525050565b610ccb81610ef3565b82525050565b6000610cdc82610ea7565b610ce68185610ed0565b9350610cf6818560208601610f38565b610cff816110a4565b840191505092915050565b6000608083016000830151610d226000860182610d6d565b506020830151610d356020860182610c20565b5060408301518482036040860152610d4d8282610cd1565b9150506060830151610d626060860182610cb3565b508091505092915050565b610d7681610f1f565b82525050565b610d8581610f1f565b82525050565b6000604082019050610da06000830185610c2f565b610dad6020830184610d7c565b9392505050565b6000606082019050610dc96000830186610c2f565b610dd66020830185610d7c565b610de36040830184610cc2565b949350505050565b60006020820190508181036000830152610e058184610c3e565b905092915050565b6000604082019050610e226000830185610d7c565b610e2f6020830184610cc2565b9392505050565b6000610e40610e51565b9050610e4c8282610f9d565b919050565b6000604051905090565b600067ffffffffffffffff821115610e7657610e75611075565b5b610e7f826110a4565b9050602081019050919050565b6000819050602082019050919050565b600081519050919050565b600081519050919050565b6000602082019050919050565b600082825260208201905092915050565b600082825260208201905092915050565b6000610eec82610eff565b9050919050565b60008115159050919050565b600073ffffffffffffffffffffffffffffffffffffffff82169050919050565b6000819050919050565b82818337600083830152505050565b60005b83811015610f56578082015181840152602081019050610f3b565b83811115610f65576000848401525b50505050565b60006002820490506001821680610f8357607f821691505b60208210811415610f9757610f96611046565b5b50919050565b610fa6826110a4565b810181811067ffffffffffffffff82111715610fc557610fc4611075565b5b80604052505050565b6000610fd982610f1f565b91507fffffffffffffffffffffffffffffffffffffffffffffffffffffffffffffffff82141561100c5761100b611017565b5b600182019050919050565b7f4e487b7100000000000000000000000000000000000000000000000000000000600052601160045260246000fd5b7f4e487b7100000000000000000000000000000000000000000000000000000000600052602260045260246000fd5b7f4e487b7100000000000000000000000000000000000000000000000000000000600052604160045260246000fd5b6000601f19601f8301169050919050565b6110be81610ef3565b81146110c957600080fd5b50565b6110d581610f1f565b81146110e057600080fd5b5056fea2646970667358221220f8f0df1d6fe4be28cc382be42da8a63f681e0dedea94656745d4b0380ba4337664736f6c63430008040033",
  "linkReferences": {},
  "deployedLinkReferences": {}
}